:0300000002014AB0
:0C014A00787FE4F6D8FD75814802019131
:0C000E00C0F9A4B0999282F88090BFFF66
:10047700083F373B17000000000001480101310029
:07048700012501C100C101C4
:0304CA0093F58027
:0B04CD000000007F0B7EBEDEFEDFFCA7
:0104D8002201
:04042A007F057E00CC
:10042E00EF1FAA0670011E4A600BE4FDEDC394088F
:05043E0050EE0D80F7F7
:010443002296
:02040C00A9073E
:10040E00E4FBC294E913929412042AD294E9C31322
:0C041E00F90BBB08ED7F057E0002042EE8
:10044400E4FBC294ECC313FCD294309403430480C1
:0904540012042A0BBB08EBAF04F3
:01045D00227C
:10037B00C202D2947F0C7E0012042EC2947F507E58
:10038B000012042ED2947F0A7E0012042EA29492A5
:06039B000212042AA20276
:0103A1002239
:1002F50012037B7FCC12040C7F4412040C12037B87
:100305007FCC12040C7FBE12040C120444A9071200
:0F0315000444E9C4540FFEEFC454F04206AF068F
:0103240022B6
:1004A400E4FEC297EF1392A3EFC313FFD2970EBEDD
:0204B40008F04E
:0104B6002223
:1003A200C29300C29700D293001204A4ED75F00A22
:1003B20084C454F0FFED75F00A84E5F04FFF120497
:0403C200A4C293221C
:1002B100E4FDC29300C29700D293001204A4E4FFAC
:1002C100C297EDC313FD30A303430580D2970FBF3F
:1002D10008EEC29300C293C29700D29700C2A30056
:1002E100D2A300EDC4540FFFED540FFEEF75F00AD9
:0302F100A42EFF39
:0102F40022E7
:1003C6007C80E4FD7F8E1203A2E4FBAF04743F2B16
:1003D600F8E6FD1203A20C0C0BBB07EF7D807F8EA7
:0303E6000203A26D
:1003E9007C81E4FD7F8E1203A2E4FBAF041202B10B
:1003F900743F2BF8A6070C0C0BBB07EF7D807F8E93
:030409000203A249
:1001D60020B3351204CD20B32F30B3FDE5256401DD
:1001E6007026E548B40105754805801CE548B40548
:1001F6000575481E8012E548B41E0575483C800802
:10020600E548B43C0375480120B20E1204CD20B275
:100216000830B2FDE4F525D2A920B1131204CD2091
:10022600B10D30B1FDC2A975A0807580FFD2012045
:10023600B00E1204CD20B00830B0FD752501C20104
:010246002295
:10001E00E525B4011E753E0B753B0B75350B753D15
:10002E000B75470B75380AE54875F00A84F53CE503
:10003E0048806DE5257034E53375F00A84F53EE5AC
:10004E003375F00A8485F03B75350AE53675F00A8E
:10005E0084F53DE53675F00A8485F04775380AE576
:10006E003275F00A84F53CE5328035E52564027080
:10007E003674262531F8E6F530753E0AE53175F011
:10008E000A84F53BE53175F00A8485F035753D0B34
:10009E0075470B75380AE53075F00A84F53CE53086
:0800AE0075F00A8485F034228C
:10045E0075A0A0E4F58075A0807580FF75A0C075AD
:09046E0080FF75A0FF7580FF22DC
:1000B60075A0C075800175A0FFE53E90000E120484
:1000C600CA75A0C075800275A0FFE53B1204CA750B
:1000D600A0C075800475A0FFE53593F5801204CDA8
:1000E60075A0C075800875A0FFE53D93F5801204E4
:1000F600CD75A0C075801075A0FFE54793F58012F9
:1001060004CD75A0C075802075A0FFE53893F580F5
:100116001204CD75A0C075804075A0FFE53C93F52F
:10012600801204CD75A0C075808075A0FFE534935C
:10013600F5801204CD75A0C07580FF75A0FF75808F
:04014600FF0204CDE3
:1004B700438E805389F0E4F58A758C28C28DD28CDF
:0304C700D2AF228F
:03000B00020247A7
:09024700C0E0C0D075D000C00079
:10025000053AE53A70020539C394C8E5399400407F
:1002600049753900753A000522E52270020521958D
:1002700048E5219400401674262508F8A63705089D
:10028000E508C3940A4006750800752502E525B403
:10029000021820000AD20075A0807580FE800B3005
:0A02A0000008C20075A0807580FF01
:0702AA00D000D0D0D0E032FB
:10048F00438E4053890FE4F58B758D28C28FD28E22
:05049F00D2AFD2AB2238
:03001B00020325B8
:10032500C0E0C0D00524E52470020523C394C8E5C8
:100335002394004014300111752300752400053104
:0E034500E531940A4003753100D0D0D0E0328B
:1003530012045E1204B712048F1203C61203E912C9
:1003630002F58F37853F328540368541331201D6FA
:0803730012001E1200B680E426
:10015600020353E493A3F8E493A34003F68001F269
:1001660008DFF48029E493A3F85407240CC8C333AA
:10017600C4540F4420C8834004F456800146F6DF79
:10018600E4800B0102040810204080900477E47E8E
:10019600019360BCA3FF543F30E509541FFEE4936E
:1001A600A360010ECF54C025E060A840B8E493A335
:1001B600FAE493A3F8E493A3C8C582C8CAC583CA60
:1001C600F0A3C8C582C8CAC583CADFE9DEE780BE18
:01048E00006D
:00000001FF
