:0300000002038276
:0C038200787FE4F6D8FD7581200203C9E5
:0C051900C0F9A4B0999282F88090BFFF56
:0E050A0001161E011414C102C100C103C1017B
:0304FB0093F580F6
:0B04FE000000007F0B7EBEDEFEDFFC76
:0105090022CF
:040483007F057E0073
:10048700EF1FAA0670011E4A600BE4FDEDC3940836
:0504970050EE0D80F79E
:01049C00223D
:02046500A907E5
:10046700E4FBC294E9139294120483D294E9C31370
:0C047700F90BBB08ED7F057E0002048736
:10049D00E4FBC294ECC313FCD29430940343048068
:0904AD001204830BBB08EBAF0441
:0104B6002223
:10043E00C204D2947F0C7E00120487C2947F507E39
:10044E0000120487D2947F0A7E00120487A294922F
:06045E0004120483A20455
:010464002275
:10040E0012043E7FCC1204657F4412046512043E32
:10041E007FCC1204657FBE12046512049DA90712DB
:0F042E00049DE9C4540FFEEFC454F04206AF061C
:01043D00229C
:10016B00E509C39514500AE4F50875A0A0F5808045
:10017B0028E509D39516400B75080275A0A075806C
:10018B00108016E509D39514400FE5099516500913
:10019B0075080175A0A0E4F58020002475130A856D
:1001AB000810750B0A75120B75150B750C0BE50901
:1001BB0075F00A84F511E50975F00A8485F00A22B9
:1001CB0020000302025730031AC20375130A75107D
:1001DB000B750B0B75120B75150B750C0A75110B3B
:1001EB00750A0BE510B40B09300106C201850D1021
:1001FB0022E50BB40B09300106C201850D0B22E57C
:10020B0011B40B09300106C201850D1122E50A64F8
:10021B000B7039300136C201850D0AE51175F00AF4
:10022B00A47C00250AFDEC35F0FCE51075F00AA462
:10023B007A00250BFFEA35F0FEC3EF9DEC6480F8E6
:0D024B00EE648098500675A0807580FD223D
:10000E0075B07FC2C485B01753170FE517640F6024
:10001E004B1204FE85B01753170FE517640F602EB1
:10002E0085B017E5172489602024FC601524FE6036
:10003E000A14701AE4F50DD2018013750D03D20166
:10004E00800C750D06D2018005750D09D201E517DC
:10005E00640F600885B01753170F80F2D2C475B0C5
:10006E00BFC2C285B01753170FE517640F70030296
:10007E00010E1204FE85B01753170FE517640F60BB
:10008E007185B017E5172449602024FC601524FE05
:10009E00600A14705D750D01D2018056750D04D283
:1000AE0001804F750D07D2018048200024D200C276
:1000BE00AF75A0807580FF75130A75100B750B0B4D
:1000CE0075120B75150B750C0A75110B750A0B80D5
:1000DE002130001EC200D2AF75A0807580FFE510E2
:1000EE0075F00AA4250BF516E51175F00AA4250A7C
:1000FE00F514E517640F600885B01753170F80F2DB
:10010E00D2C275B0DF85B01753170FE517640F60B5
:10011E004B1204FE85B01753170FE517640F602EB0
:10012E0085B017E5172429602024FC601524FE6095
:10013E000A14701A750D02D2018013750D05D201C5
:10014E00800C750D08D2018005200302D203E5173D
:0C015E00640F600885B01753170F80F283
:01016A002272
:1004B70075A0A0E4F58075A0807580FF75A0C07554
:0904C70080FF75A0FF7580FF2283
:1002EE0075A0C075800175A0FFE513900519120465
:1002FE00FB75A0C075800275A0FFE5101204FB759A
:10030E00A0C075800475A0FFE50B93F5801204FE66
:10031E0075A0C075800875A0FFE51293F5801204D4
:10032E00FE75A0C075801075A0FFE51593F58012BF
:10033E0004FE75A0C075802075A0FFE50C93F580B6
:10034E001204FE75A0C075804075A0FFE51193F5EF
:10035E00801204FE75A0C075808075A0FFE50A931B
:10036E00F5801204FE75A0C07580FF75A0FF758024
:04037E00FF0204FE78
:1004E600438E805389F0758ACD758CD4C28DD28C9B
:0504F600D2AFD2A922E3
:03000B0002025896
:10025800C0E0C0D0050FE50F7002050EC39420E57D
:100268000E94034020E508701CF50EF50F20020AD5
:10027800D20275A0807580FF800B300208C202751B
:10028800A0807580FEC3E50F9490E50E940140238D
:10029800E508B4011E750E00750F0020020AD2028F
:1002A80075A0807580FF800B300208C20275A0809F
:1002B8007580FEC3E50F94C8E50E94004023E50859
:1002C800B4021E750E00750F0020020AD20275A036
:1002D800807580FF800B300208C20275A08075808F
:0602E800FED0D0D0E03290
:1004D0001204B71204E612040E8F0912000E120164
:0604E0006B1202EE80F039
:10038E000204D0E493A3F8E493A34003F68001F2B1
:10039E0008DFF48029E493A3F85407240CC8C33370
:1003AE00C4540F4420C8834004F456800146F6DF3F
:1003BE00E4800B010204081020408090050AE47EC0
:1003CE00019360BCA3FF543F30E509541FFEE49334
:1003DE00A360010ECF54C025E060A840B8E493A3FB
:1003EE00FAE493A3F8E493A3C8C582C8CAC583CA26
:1003FE00F0A3C8C582C8CAC583CADFE9DEE780BEDE
:0105180000E2
:00000001FF
