:0300000002042CCB
:0C042C00787FE4F6D8FD7581200204738F
:0C087D00C0F9A4B0999282F88090BFFFEF
:10082D000814001E080000000000010832010A0033
:08083D00C180C103C181C102A9
:03086E0093F5807F
:0B0871000000007F0B7EBEDEFEDFFCFF
:01087C002259
:10085B00E4FEC297EF1392A3EFC313FFD2970EBE22
:02086B0008F093
:01086D002268
:10077800C29300C29700D2930012085BED75F00A8D
:1007880084C454F0FFED75F00A84E5F04FFF1208B9
:040798005BC293228B
:1006CD00E4FDC29300C29700D2930012085BE4FFD1
:1006DD00C297EDC313FD30A303430580D2970FBF1F
:1006ED0008EEC29300C293C29700D29700C2A30036
:1006FD00D2A300EDC4540FFFED540FFEEF75F00AB9
:03070D00A42EFF18
:0107100022C6
:10079C007C80E4FD7F8E120778E4FBAF0474142B8D
:1007AC00F8E6FD1207780C0C0BBB07EF7D807F8EF3
:0307BC00020778B9
:1007BF007C81E4FD7F8E120778E4FBAF041206CD37
:1007CF0074142BF8A6070C0C0BBB07EF7D807F8EE4
:0307DF0002077896
:10067400D2A1D2A000000000000000000000000091
:100684000000000000000000000000000000000066
:10069400000000000000000000000000C2A10000F3
:1006A4000000000000000000000000000000000046
:1006B4000000000000000000000000000000000036
:0906C400000000000000C2A022A9
:10074900C2A1D2A0000000000000000000000000CB
:100759000000000000000000000000000000000090
:0F076900000000000000000000000000D2A122EC
:0B0399001205A612054412060FC20454
:1003A400300404C2A18002D2A100000000000000B9
:1003B4000000000000000000000000000000000039
:1003C4000000000000000000000000000000000029
:1003D40000D2A000000000000000000000000000A7
:1003E4000000000000000000000000000000000009
:1003F4000000000000000000000000C2A0D2A10024
:1004040000000000000000000000000000000000E8
:1004140000000000000000000000000000000000D8
:080424000000000000000022AE
:0B0539001205A6120544AF051205A62E
:10054400D2A1000000000000000000000000000034
:100554000000000000000000000000000000000097
:1005640000000000000000000000D2A00000000015
:100574000000000000000000000000000000000077
:100584000000000000000000000000000000000067
:100594000000000030A107C2A0120749C322C2A074
:0205A400D32260
:1005A600E4FEEF30E704D2A18002C2A10000000001
:1005B6000000000000000000000000000000000035
:1005C6000000000000000000000000000000000025
:1005D60000000000D2A0EF25E0FF000000000000B0
:1005E6000000000000000000000000000000000005
:1005F60000000000000000000000000000000000F5
:080606000000C2A00EBE089A1C
:01060E0022C9
:10060F00E4FED2A000000000000000000000000087
:10061F0000000000000000000000000000000000CB
:10062F00000000000000000000000000EF25E0FFC8
:10063F0030A103430701C2A000000000000000002A
:10064F00000000000000000000000000000000009B
:10065F00000000000000000000000000000000008B
:04066F000EBE089E15
:010673002264
:0207E200AD0761
:1007E4001206747F901205391207491206747F911C
:0607F400120399120749EF
:0107FA0022DC
:10084600AC071206747FA01205A6120544AF041267
:0508560005390207490D
:0207FB00AD0748
:1007FD001206747FA01205391207491206747FA1E3
:06080D00120399120749D5
:0108130022C2
:1001D60020000302026985150E85160BE50B75F0E6
:1001E6000A84F513E50B75F00A8485F010750D0A7F
:1001F600E50E75F00A84F512E50E75F00A8485F0B1
:100206001C750F0BE50975F00A84F511E50975F003
:100216000A8485F00CE509C39508500E75A0807513
:1002260080FE75A0A07580108013E509D39508405F
:100236000C75A0807580FF75A0A0E4F580300323BF
:1002460075130A75100A750D0B75120B751C0B7557
:100256000F0BE50875F00A84F511E50875F00A84B8
:1002660085F00C30000302030485150E85160BE598
:100276000B75F00A84F513E50B75F00A8485F0100A
:10028600750D0AE50E75F00A84F512E50E75F00A8D
:100296008485F01C750F0BE50975F00A84F511E5E8
:1002A6000975F00A8485F00C30012AE509C3950822
:1002B600500E75A0807580FD75A0A0430A4080246D
:1002C600E509D39508402075A0807580FF75A0A02C
:1002D600E4F50A800F20010F75A0807580FF75A0D8
:1002E600A0E4F50A850A8030020875A0A0E4F50AA4
:0F02F600800920020975A0A0430A10850A802202
:1004B80020B01512087120B00F30B0FD300004C212
:1004C800008005200002D20020B13012087120B14E
:1004D8002A30B1FD30001530030BC203AD08E4FF2C
:1004E8001208468016200313D203800F20000C2028
:1004F8000104D2018005300102C20120B21812089D
:100508007120B21230B2FD300007300309050880AF
:1005180005200002C20220B31712087120B311305F
:10052800B3FD300006300308150822200002D2026D
:0105380022A0
:1008140075A0A0E4F58075A0807580FF75A0C075F3
:0908240080FF75A0FF7580FF2222
:1003050075A0C075800175A0FFE51390087D1208E2
:100315006E75A0C075800275A0FFE51012086E7598
:10032500A0C075800475A0FFE50D93F580120871D6
:1003350075A0C075800875A0FFE51293F5801208B9
:100345007175A0C075801075A0FFE51C93F580122E
:10035500087175A0C075802075A0FFE50F93F58025
:1003650012087175A0C075804075A0FFE51193F561
:100375008012087175A0C075808075A0FFE50C938B
:10038500F58012087175A0C07580FF75A0FF758096
:04039500FF020871EA
:1007110012081412079CE4FF1207FB8F087F0312D3
:1007210007E28F09AC09E41201137B147AAE79C791
:10073100783E1200031201478F091207BF1204B855
:080741001201D612030580D558
:10000300EC4D6011E8497017ED33EC3304600DE4F7
:10001300FCFFFEFD22E933E8330470F80201B3125A
:10002300017E58046009E4CC24815006285009025B
:1000330001BD2840030201BAC0E0EB4A7044B98015
:1000430006D0E0FB0201A9EF4E701CBD8008EBFF58
:10005300EAFEE9FD80EBE98DF0A4FEE5F00200EC99
:10006300E9CDF9EAFEEBFFEF89F0A4FCE5F0CE89D8
:10007300F0A42EFFE435F0CD89F0A42DFEE435F095
:100083008067EF4E7005BD80D780C3EF8BF0A4ACC3
:10009300F0EE8BF0A42CFCE435F0F8EF8AF0A42CFE
:1000A300E5F038FCE433CB8DF0A42CFCE5F03BF811
:1000B300EE8AF0A42CFCE5F038F8E433CF89F0A401
:1000C3002CFCE5F038CF3400CE89F0A42FFFE5F007
:1000D3003EFEE433C98DF0A42EFEE5F039CD8AF05F
:1000E300A42FFFE5F03EFEE43DFD33D0E0FB5007D7
:1000F3000BBB000F0201BDEC2CFCEF33FFEE33FE14
:06010300ED33FD02019541
:1001090075F020800E75F010800575F0087D007E71
:10011900007F003392D530D5031201C8EC3340106B
:10012900EF33FFEE33FEED33FDEC33FCD5F0ED227A
:0E013900E5F0247EA2D513CC92E7CDCEFF22B6
:10014700EDD2E7CD33EC3392D524814006E4FFFEB0
:10015700FDFC22FCE4CFCECDCC24E0501174FF800F
:10016700EDC3CC13CCCD13CDCE13CECF13CF0470AC
:07017700F030D5DE0201C8E3
:10017E00E9D2E7C933E833F892D5EDD2E7CD33ECC7
:07018E0033FC5002B2D52240
:10019500EC30E7100FBF000C0EBE00080DBD0004CB
:1001A5000BEB6014A2D5EB13FCED92E7FD2274FF77
:1001B500FCFDFEFF22E480F8A2D574FF13FC7D80D0
:0301C500E480EFE4
:10043800020711E493A3F8E493A34003F68001F2C2
:1004480008DFF48029E493A3F85407240CC8C333C5
:10045800C4540F4420C8834004F456800146F6DF94
:10046800E4800B010204081020408090082DE47EEF
:10047800019360BCA3FF543F30E509541FFEE49389
:10048800A360010ECF54C025E060A840B8E493A350
:10049800FAE493A3F8E493A3C8C582C8CAC583CA7B
:1004A800F0A3C8C582C8CAC583CADFE9DEE780BE33
:0108450000B2
:0E01C800C3E49FFFE49EFEE49DFDE49CFC2248
:00000001FF
