:030000000200F00B
:0C00F000787FE4F6D8FD75810F0201084E
:0C00FC00C0F9A4B0999282F88090BFFF78
:0300E10093F58014
:0B00E4000000007F0B7EBEDEFEDFFC94
:0100EF0022EE
:1000970020B3151200E420B30F30B3FD75A0A0758F
:1000A700800875A0807580FE20B2151200E420B28A
:1000B7000F30B2FD75A0A0E4F58075A0807580FFB4
:0100C7002216
:1000C80075A0A0E4F58075A0807580FF75A0C07547
:0900D80080FF75A0FF7580FF2276
:1000030075A0C075800175A0FFE50E9000FC12007D
:10001300E175A0C075800275A0FFE50B1200E175C4
:10002300A0C075800475A0FFE50993F5801200E474
:1000330075A0C075800875A0FFE50D93F5801200CB
:10004300E475A0C075801075A0FFE50F93F58012CD
:1000530000E475A0C075802075A0FFE50A93F580C4
:100063001200E475A0C075804075A0FFE50C93F500
:10007300801200E475A0C075808075A0FFE5089329
:10008300F5801200E475A0C07580FF75A0FF758030
:04009300FF0200E484
:0B0108001200C812009712000380F8DC
:00000001FF
