:030000000202FDFC
:0C02FD00787FE4F6D8FD75813A020344D6
:0C07FB00C0F9A4B0999282F88090BFFF72
:0A0807000831373B171C0200050002
:0307EC0093F58002
:0B07EF000000007F0B7EBEDEFEDFFC82
:0107FA0022DC
:040748007F057E00AB
:10074C00EF1FAA0670011E4A600BE4FDEDC394086E
:05075C0050EE0D80F7D6
:010761002275
:02072A00A9071D
:10072C00E4FBC294E9139294120748D294E9C313E0
:0C073C00F90BBB08ED7F057E0002074CA6
:10076200E4FBC294ECC313FCD294309403430480A0
:090772001207480BBB08EBAF04B1
:01077B00225B
:10069900C200D2947F0C7E0012074CC2947F507E18
:1006A9000012074CD2947F0A7E0012074CA2949242
:0606B90000120748A20038
:0106BF002218
:10063A001206997FCC12072A7F4412072A120699BA
:10064A007FCC12072A7FBE12072A120762A9071255
:0F065A000762892CEFC454F0FFE9C4540F4FFF1F
:01066900226E
:1007D900E4FEC297EF1392A3EFC313FFD2970EBEA5
:0207E90008F016
:0107EB0022EB
:1006C000C29300C29700D293001207D9ED75F00AC9
:1006D00084C454F0FFED75F00A84E5F04FFF120773
:0406E000D9C29322C6
:1005F600E4FDC29300C29700D293001207D9E4FF2C
:10060600C297EDC313FD30A303430580D2970FBFF6
:1006160008EEC29300C293C29700D29700C2A3000D
:10062600D2A300EDC4540FFFED540FFEEF75F00A90
:03063600A42EFFF0
:01063900229E
:1006E4007C80E4FD7F8E1206C0E4FBAF0474312BE2
:1006F400F8E6FD1206C00C0C0BBB07EF7D807F8E65
:030704000206C02A
:100707007C81E4FD7F8E1206C0E4FBAF041205F680
:1007170074312BF8A6070C0C0BBB07EF7D807F8E7F
:030727000206C007
:10059D00D2A1D2A000000000000000000000000069
:1005AD00000000000000000000000000000000003E
:1005BD00000000000000000000000000C2A10000CB
:1005CD00000000000000000000000000000000001E
:1005DD00000000000000000000000000000000000E
:0905ED00000000000000C2A02281
:10066A00C2A1D2A0000000000000000000000000AB
:10067A000000000000000000000000000000000070
:0F068A00000000000000000000000000D2A122CC
:0B026A0012046F12040D1204D8C20031
:10027500300004C2A18002D2A100000000000000ED
:100285000000000000000000000000000000000069
:100295000000000000000000000000000000000059
:1002A50000D2A000000000000000000000000000D7
:1002B5000000000000000000000000000000000039
:1002C5000000000000000000000000C2A0D2A10054
:1002D5000000000000000000000000000000000019
:1002E5000000000000000000000000000000000009
:0802F5000000000000000022DF
:0B04020012046F12040DAF0512046F0E
:10040D00D2A100000000000000000000000000006C
:10041D0000000000000000000000000000000000CF
:10042D0000000000000000000000D2A0000000004D
:10043D0000000000000000000000000000000000AF
:10044D00000000000000000000000000000000009F
:10045D000000000030A107C2A012066AC322C2A08C
:02046D00D32298
:10046F00E4FEEF30E704D2A18002C2A10000000039
:10047F00000000000000000000000000000000006D
:10048F00000000000000000000000000000000005D
:10049F0000000000D2A0EF25E0FF000000000000E8
:1004AF00000000000000000000000000000000003D
:1004BF00000000000000000000000000000000002D
:0804CF000000C2A00EBE089A55
:0104D7002202
:1004D800E4FED2A0000000000000000000000000C0
:1004E8000000000000000000000000000000000004
:1004F800000000000000000000000000EF25E0FF01
:1005080030A103430701C2A0000000000000000062
:1005180000000000000000000000000000000000D3
:1005280000000000000000000000000000000000C3
:040538000EBE089E4D
:01053C00229C
:02077C00AD07C7
:10077E0012059D7F9012040212066A12059D7F914A
:06078E0012026A12066A65
:010794002242
:1007C400AC0712059D7FA012046F12040DAF041232
:0507D400040202066AA8
:0207AE00AD0795
:1007B00012059D7FA012040212059D7FA112026AFC
:0307C00012066AB4
:0107C3002213
:10038900E52620E034E52775F00A84F530E5277580
:10039900F00A8485F02D75290AE52A75F00A84F595
:1003A9002FE52A75F00A8485F039752B0AE526753B
:1003B900F00A84F52EE5268038E526C3136039E571
:1003C9002475F00A84F530E52475F00A8485F02D4A
:1003D90075290AE52575F00A84F52FE52575F00AD2
:1003E9008485F039752B0AE52275F00A84F52EE526
:0903F9002275F00A8485F0282227
:1007950075A0A0E4F58075A0807580FF75A0C07573
:0907A50080FF75A0FF7580FF22A2
:1001D60075A0C075800175A0FFE5309007FB12077A
:1001E600EC75A0C075800275A0FFE52D1207EC75B1
:1001F600A0C075800475A0FFE52993F5801207EF6E
:1002060075A0C075800875A0FFE52F93F5801207CD
:10021600EF75A0C075801075A0FFE53993F58012C3
:1002260007EF75A0C075802075A0FFE52B93F580BC
:100236001207EF75A0C075804075A0FFE52E93F5F7
:10024600801207EF75A0C075808075A0FFE5289322
:10025600F5801207EF75A0C07580FF75A0FF758049
:04026600FF0207EF9D
:10053D001207951206E47D0CE4FF1207C412063A69
:10054D008F231207077F0312077C8F21AC21E41242
:10055D0001137B147AAE79C7783E1200031201475E
:10056D008F21E52175F00A84F530E52175F00A84B7
:10057D0085F02DE4FF1207AE8F3AE53A75F00A8447
:10058D00F52FE53A75F00A8485F0391201D680AD64
:10000300EC4D6011E8497017ED33EC3304600DE4F7
:10001300FCFFFEFD22E933E8330470F80201B3125A
:10002300017E58046009E4CC24815006285009025B
:1000330001BD2840030201BAC0E0EB4A7044B98015
:1000430006D0E0FB0201A9EF4E701CBD8008EBFF58
:10005300EAFEE9FD80EBE98DF0A4FEE5F00200EC99
:10006300E9CDF9EAFEEBFFEF89F0A4FCE5F0CE89D8
:10007300F0A42EFFE435F0CD89F0A42DFEE435F095
:100083008067EF4E7005BD80D780C3EF8BF0A4ACC3
:10009300F0EE8BF0A42CFCE435F0F8EF8AF0A42CFE
:1000A300E5F038FCE433CB8DF0A42CFCE5F03BF811
:1000B300EE8AF0A42CFCE5F038F8E433CF89F0A401
:1000C3002CFCE5F038CF3400CE89F0A42FFFE5F007
:1000D3003EFEE433C98DF0A42EFEE5F039CD8AF05F
:1000E300A42FFFE5F03EFEE43DFD33D0E0FB5007D7
:1000F3000BBB000F0201BDEC2CFCEF33FFEE33FE14
:06010300ED33FD02019541
:1001090075F020800E75F010800575F0087D007E71
:10011900007F003392D530D5031201C8EC3340106B
:10012900EF33FFEE33FEED33FDEC33FCD5F0ED227A
:0E013900E5F0247EA2D513CC92E7CDCEFF22B6
:10014700EDD2E7CD33EC3392D524814006E4FFFEB0
:10015700FDFC22FCE4CFCECDCC24E0501174FF800F
:10016700EDC3CC13CCCD13CDCE13CECF13CF0470AC
:07017700F030D5DE0201C8E3
:10017E00E9D2E7C933E833F892D5EDD2E7CD33ECC7
:07018E0033FC5002B2D52240
:10019500EC30E7100FBF000C0EBE00080DBD0004CB
:1001A5000BEB6014A2D5EB13FCED92E7FD2274FF77
:1001B500FCFDFEFF22E480F8A2D574FF13FC7D80D0
:0301C500E480EFE4
:1003090002053DE493A3F8E493A34003F68001F2C8
:1003190008DFF48029E493A3F85407240CC8C333F5
:10032900C4540F4420C8834004F456800146F6DFC4
:10033900E4800B0102040810204080900807E47E45
:10034900019360BCA3FF543F30E509541FFEE493B9
:10035900A360010ECF54C025E060A840B8E493A380
:10036900FAE493A3F8E493A3C8C582C8CAC583CAAB
:10037900F0A3C8C582C8CAC583CADFE9DEE780BE63
:0108110000E6
:0E01C800C3E49FFFE49EFEE49DFDE49CFC2248
:00000001FF
