:03000000020147B3
:0C014700787FE4F6D8FD75812002018E5F
:0C040B00C0F9A4B0999282F88090BFFF65
:0C000E00010A00010B010117000119009C
:0303FC0093F580F6
:0B03FF000000007F0B7EBEDEFEDFFC76
:01040A0022CF
:04036C007F057E008B
:10037000EF1FAA0670011E4A600BE4FDEDC394084E
:0503800050EE0D80F7B6
:010385002255
:02034E00A907FD
:10035000E4FBC294E913929412036CD294E9C313A0
:0C036000F90BBB08ED7F057E0002037066
:10038600E4FBC294ECC313FCD29430940343048080
:0903960012036C0BBB08EBAF0471
:01039F00223B
:10030400C200D2947F0C7E00120370C2947F507E90
:1003140000120370D2947F0A7E00120370A294929A
:060324000012036CA200B0
:01032A0022B0
:1002A4001203047FCC12034E7F4412034E12030444
:1002B4007FCC12034E7FBE12034E120386A907128F
:1002C40003868909E9C4540FFEEFC454F04206AF13
:0102D4000623
:0102D5002206
:1001D30020B3151203FF20B30F30B3FD050BE50B5E
:1001E300C394044003750B0120B22F1203FF20B206
:1001F3002930B2FD0517E517C394034003E4F5174F
:10020300E5177004F5198012E517B4010575193C5B
:100213008008E517B4020375197820B10C1203FFA7
:1002230020B10630B1FDE4F51920B01F1203FF2001
:10023300B01930B0FDE50A7007850B11750A01226C
:0C024300E50AB40106E4F50A85110B225F
:10001E00E50A704E75160A850B13750F0A75150BCA
:10002E00E519FB7C037DE8FF7E0012024F8F187CE2
:10003E00037DE8AF037E0012024F7E007F64CFCDBA
:10004E00CFCECCCE12024F8F10E51975F06484E539
:10005E00F075F00A84F514E51975F00A8485F00E32
:10006E008028E50AB4012375160A751304750F0A64
:10007E0075150B75180BE50C75F00A84F510E50C6B
:10008E0075F00A8485F014750E0AE50BB40104753B
:10009E000D0222E50BB40204750D0322E50BB40329
:0500AE0003750D07229F
:1003A00075A0A0E4F58075A0807580FF75A0C0756C
:0903B00080FF75A0FF7580FF229B
:1000B30075A0C075800175A0FFE51690040B1203AF
:1000C300FC75A0C075800275A0FFE5131203FC75D3
:1000D300A0C075800475A0FFE50F93F5801203FFA0
:1000E30075A0C075800875A0FFE51593F580120310
:1000F300FF75A0C075801075A0FFE51893F58012F9
:1001030003FF75A0C075802075A0FFE51093F580EF
:100113001203FF75A0C075804075A0FFE51493F529
:10012300801203FF75A0C075808075A0FFE50E9354
:10013300F5801203FF75A0C07580FF75A0FF758061
:04014300FF0203FFB5
:1003D200438E4053890F758BAE758DFBC28FD28EC3
:0503E200D2AFD2AB22F6
:03001B000202D608
:1002D600C0E0C0D00512E512C3940A4003751200AF
:1002E600E519600FE512D3950D4004C2B4800AD219
:0E02F600B48006E5197002C2B4D0D0D0E03258
:1003E700438E805389F0E4F58A758C28C28DD28CB0
:0503F700D2AFD2A922E3
:03000B0002032BC2
:10032B00C0E0C0D00508E508C394C84011750800AB
:10033B00E519D39400500575190080021519D0D01A
:03034B00D0E032CD
:1003B9001203A01203D21203E71202A48F0C120136
:0903C900D312001E1200B380F0F3
:100153000203B9E493A3F8E493A34003F68001F206
:1001630008DFF48029E493A3F85407240CC8C333AD
:10017300C4540F4420C8834004F456800146F6DF7C
:10018300E4800B010204081020408090000EE47EFE
:10019300019360BCA3FF543F30E509541FFEE49371
:1001A300A360010ECF54C025E060A840B8E493A338
:1001B300FAE493A3F8E493A3C8C582C8CAC583CA63
:1001C300F0A3C8C582C8CAC583CADFE9DEE780BE1B
:01001A0000E5
:10024F00BC000BBE0029EF8DF084FFADF022E4CC93
:10025F00F875F008EF2FFFEE33FEEC33FCEE9DEC5C
:10026F00984005FCEE9DFE0FD5F0E9E4CEFD22EDA2
:10027F00F8F5F0EE8420D21CFEADF075F008EF2FEC
:10028F00FFED33FD4007985006D5F0F222C398FDDD
:05029F000FD5F0EA227A
:00000001FF
