:03000000020417E0
:0C041700787FE4F6D8FD75813D02045E9C
:0C06D300C0F9A4B0999282F88090BFFF9B
:100632000834373B170000000000012200012700A8
:0C064200012100013D00C100C102C10106
:0306C40093F5802B
:0B06C7000000007F0B7EBEDEFEDFFCAB
:0106D2002205
:04064F007F057E00A5
:10065300EF1FAA0670011E4A600BE4FDEDC3940868
:0506630050EE0D80F7D0
:01066800226F
:02061400A90734
:10061600E4FBC294E913929412064FD294E9C313F1
:0C062600F90BBB08ED7F057E00020653B7
:10066900E4FBC294ECC313FCD2943094034304809A
:0906790012064F0BBB08EBAF04A5
:010682002255
:10055E00C203D2947F0C7E00120653C2947F507E4B
:10056E0000120653D2947F0A7E00120653A2949272
:06057E000312064FA20368
:010584002254
:10052E0012055E7FCC1206147F4412061412055E6D
:10053E007FCC1206147FBE120614120669A907128A
:0F054E0006698923EFC454F0FFE9C4540F4FFF2F
:01055D00227B
:1006B100E4FEC297EF1392A3EFC313FFD2970EBECE
:0206C10008F03F
:0106C3002214
:1005AA00C29300C29700D293001206B1ED75F00A09
:1005BA0084C454F0FFED75F00A84E5F04FFF12068B
:0405CA00B1C2932205
:1004EA00E4FDC29300C29700D293001206B1E4FF62
:1004FA00C297EDC313FD30A303430580D2970FBF04
:10050A0008EEC29300C293C29700D29700C2A3001A
:10051A00D2A300EDC4540FFFED540FFEEF75F00A9D
:03052A00A42EFFFD
:01052D0022AB
:1005CE007C80E4FD7F8E1205AAE4FBAF0474342B0D
:1005DE00F8E6FD1205AA0C0C0BBB07EF7D807F8E93
:0305EE000205AA59
:1005F1007C81E4FD7F8E1205AAE4FBAF041204EABC
:1006010074342BF8A6070C0C0BBB07EF7D807F8E93
:030611000205AA35
:1002190020B0151206C720B00F30B0FD0521E52129
:10022900C394044003E4F52120B1171206C720B195
:100239001130B1FD053DE53DC394044005E4F53DAC
:10024900F52120B27C1206C720B27630B2FDE52135
:10025900B4010E0536E536C3941840297536178062
:1002690024E521B4020E0535E535C3943C400375F8
:10027900353B8011E521B403110534E534C3943CC1
:10028900400375343B1205CE8037E53DB4010E05B8
:1002990025E525C3941840297525178024E53DB423
:1002A900020E0526E526C3943C401675263B8011AF
:1002B900E53DB4030C0524E524C3943C40037524AF
:1002C9003B20B30B1206C720B305D20175210420C8
:1002D900B303020382200103020382C201E4F52170
:1002E900E521B40115E5276003E4F5271536E53660
:1002F900D394005037E4F5368032E521B40215E590
:10030900276003E4F5271535E535D394005003E458
:10031900F5358018E521B40316E5276003E4F527D0
:100329001534E534D394005003E4F5340205CEE5E1
:100339003DB40114E5276003E4F5271525E525D328
:1003490094005035E4F52522E53DB40214E5276013
:1003590003E4F5271526E526D39400501CE4F52679
:1003690022E53DB40313E5276003E4F5271524E5E9
:0A03790024D394005003E4F524227D
:10000E00E52AB5250FE526B52D0AE529B524057592
:10001E002701800AE527700675A0807580FFE5210F
:10002E00701AE53D7016200013E52A75F00A84F566
:10003E0033E52A75F00A8485F0308024E5216401C9
:10004E007034E52920E013E52A75F00A84F533E5CE
:10005E002A75F00A8485F030800675330B75300BE7
:10006E00752C0AE52D75F00A84F532E52D75F00A2A
:10007E008485F03C8038E52164027042E52920E059
:10008E0013E52D75F00A84F532E52D75F00A848599
:10009E00F03C800675320B753C0BE52A75F00A8430
:1000AE00F533E52A75F00A8485F030752C0A752E25
:1000BE000AE52975F00A84F531E52902019BE5214F
:1000CE006403703DE52920E01175F00A84F531E5F1
:1000DE002975F00A8485F02B800675310B752B0B74
:1000EE00E52A75F00A84F533E52A75F00A8485F061
:1000FE0030752C0AE52D75F00A84F532E52D0201D6
:10010E00E5E53D64017041E52920E013E52575F034
:10011E000A84F533E52575F00A8485F0308006757E
:10012E00330B75300B752C0AE52675F00A84F53203
:10013E00E52675F00A8485F03C752E0AE52475F0E7
:10014E000A84F531E5248045E53D64027047E529D2
:10015E0020E013E52675F00A84F532E52675F00ADF
:10016E008485F03C800675320B753C0BE52575F0E9
:10017E000A84F533E52575F00A8485F030752C0A6E
:10018E00752E0AE52475F00A84F531E52475F00A1A
:10019E008485F02B22E53D64037047E52920E013AA
:1001AE00E52475F00A84F531E52475F00A8485F0AE
:1001BE002B800675310B752B0BE52575F00A84F532
:1001CE0033E52575F00A8485F030752C0AE5267521
:1001DE00F00A84F532E52675F00A8485F03C752E1A
:1001EE000A22E521B4042375330B75300B752C0BE5
:1001FE0075320B753C0BE52875F00A84F52EE52853
:0B020E0075F00A8485F031752B0A2280
:1006830075A0A0E4F58075A0807580FF75A0C07586
:0906930080FF75A0FF7580FF22B5
:1003830075A0C075800175A0FFE5339006D31206F2
:10039300C475A0C075800275A0FFE5301206C47550
:1003A300A0C075800475A0FFE52C93F5801206C7E5
:1003B30075A0C075800875A0FFE53293F58012061D
:1003C300C775A0C075801075A0FFE53C93F580123A
:1003D30006C775A0C075802075A0FFE52E93F58034
:1003E3001206C775A0C075804075A0FFE53193F56F
:1003F300801206C775A0C075808075A0FFE52B939A
:10040300F5801206C775A0C07580FF75A0FF7580C3
:04041300FF0206C717
:10069C00438E805389F0758ACD758CD4C28DD28CE3
:0506AC00D2AFD2A9222B
:03000B000204A349
:1004A300C0E0C0D0052FE52FC394C84035752F0099
:1004B300E527640170220522E5229419400675227E
:1004C3000075270020020A75A0807580FED2028085
:1004D3001130020EC2028004E527700675A08075F4
:0704E30080FFD0D0D0E03211
:100585001206831205CE12069C12052E8F2812051F
:10059500F185342985352D85362A12021912000E6A
:0505A50012038380E455
:10042300020585E493A3F8E493A34003F68001F265
:1004330008DFF48029E493A3F85407240CC8C333DA
:10044300C4540F4420C8834004F456800146F6DFA9
:10045300E4800B0102040810204080900632E47E01
:10046300019360BCA3FF543F30E509541FFEE4939E
:10047300A360010ECF54C025E060A840B8E493A365
:10048300FAE493A3F8E493A3C8C582C8CAC583CA90
:10049300F0A3C8C582C8CAC583CADFE9DEE780BE48
:01064E0000AB
:00000001FF
